:020000040000FA
:040000008A11112828
:10000800FE00030E83120313A6000408A7000A08C3
:10001800A8007F08A9008A11762A8A111328831359
:100028003E3084004C308A11B82783018A11602B36
:10020000FF1B0A2983137F1883170008840A031928
:10021000FF0A08007F087F398A000408840A03194E
:10022000FF0A8200563461346334753475346D349A
:10023000003400340034003400340034003400341E
:10024000003400340034003400340034003400340E
:1002500000340034003400340034003400340034FE
:1002600043346C34653461346E3420346234613428
:100270007434683472346F346F346D340034003445
:1002800000340034003400340034003400340034CE
:100290000034003400340034003400344D346F3402
:1002A0007034203466346C346F346F3472340034FC
:1002B000003400340034003400340034003400349E
:1002C000003400340034003400340034003400348E
:1002D00000340034003400345734613473346834EB
:1002E00020346234653464342034733468346534C3
:1002F0006534743473340034003400340034003412
:10030000003400340034003400340034003400344D
:100310000034003457346134733468342034633427
:10032000753472347434613469346E347334003427
:10033000003400340034003400340034003400341D
:10034000003400340034003400340034003400340D
:10035000443475347334743469346E34673400341F
:1003600000340034003400340034003400340034ED
:1003700000340034003400340034003400340034DD
:1003800000340034003400340034003443346C341E
:10039000653461346E3420346D34693463347234BE
:1003A0006F3477346134763465340034003400348B
:1003B000003400340034003400340034003400349D
:1003C00000340034003400345334633472347534F0
:1003D0006234203464346F346F34723473342034B4
:1003E00061346E346434203463346134623469348B
:1003F0006E346534743473340034003400340034A3
:10040000003400344F347234673461346E346934EC
:100410007A346534203463346C346F347334653427
:1004200074340034003400340034003400340034B8
:10043000003400340034003400340034003400341C
:1004400043346C34653461346E34203475346E3426
:100450006434653472342034733469346E346B34EC
:100460007334003400340034003400340034003479
:1004700000340034003400340034003443346C342D
:10048000653461346E3420346634723469346434D3
:1004900067346534003400340034003400340034F0
:1004A00000340034003400340034003400340034AC
:1004B000003400340034003457346134733465340C
:1004C00065346D3400344834693462346134003446
:1004D0000034003473346C34653465347034203443
:1004E000743469346D346534213400348B1C2C2B06
:1004F0000B3083120313A200A20B7C2A7F2A8312E3
:1005000003134B0803198F2A0C308A1120268A11F5
:100510008A11AE278A1183120313CB01052B1030E9
:10052000C2000030C3000A30F3000030F4008A112A
:10053000F1258A1183120313A200A3012208F500FA
:100540002308F6008A11D5248A1174088312031334
:10055000C5007308C4004508F6004408F5000B30D8
:10056000F3000030F4008A11D5248A117408FB00CE
:100570007308FA001E30FC000030FD008A11A72627
:100580008A11123083120313A2008130A3007A086B
:100590002207A4007B0803187B0A2307A500240870
:1005A000C0002508C10044080139A2002208CA0081
:1005B0004008F0004108F1008A1155278A11831282
:1005C0000313A20011302202031C052B1030C200BD
:1005D0000030C300F52A420843040319032BFF30FF
:1005E000C2070318C30AFF30C3074208400784004C
:1005F00043080318430A4107FF008A1100218A11AA
:10060000203A031DEB2AC801C80A4008F40041083B
:10061000F5004208A2002208F600F701F8018A114D
:1006200059258A11831203134A08A200A301220844
:10063000F4002308F5000630A4002408F600F701B2
:10064000F70AF8018A1159258A11831203138101CF
:100650008E018F018B10532B0B1D532BCB01CB0A1B
:1006600000308A117C268A116A30F4008230F5004D
:10067000103083120313A2002208F600F701F801DC
:100680008A1159258A11063083120313A3000630FC
:10069000A200A20B492BA30B492B08308A1120265C
:1006A0008A110B116300831203132908FF00280825
:1006B0008A0027088400260E8300FE0E7E0E0900A5
:1006C000C0308316031385000130860083120313A4
:1006D000850186018B100B1683160313811281117D
:1006E0000115811401148B128B178A1133248A117E
:1006F0000A3083120313AD000030AE008A114F267A
:100700008A1183120313BA00BB013A08AF003B08F9
:10071000B0008A1188248A11831203132E08C500A1
:100720002D08C4004508B0004408AF000B30AD00F0
:100730000030AE008A1188248A11831203132E0818
:10074000B5002D08B4001E30B6000030B7008A1185
:10075000CE268A11123083120313BA008130BB00F7
:1007600034083A07BC0035080318350A3B07BD00BA
:100770003C08C0003D08C1008A1196278A118312E7
:1007800003134008AE004108AF004208BA003A081F
:10079000B000B101B2018A1120258A1107308312FD
:1007A0000313BA003A08AA004A088A1175278A1169
:1007B0005C3E83120313BB0082300318013EBC0071
:1007C0003B08AE003C08AF000630BD003D08B0005D
:1007D000B101B10AB2018A1120258A1183120313D3
:1007E0004008AA004108AB008A1135278A118312FC
:1007F0000313BA0011303A02031C272C063083126F
:100800000313BB000630BA00BA0B042CBB0B042C3C
:1008100000308A11C1258A11831203134208400750
:10082000BA0043080318430A4107BB003A08013ED7
:10083000AE003B080318013E003EAF001030BC0084
:100840003C08B000B101B2018A1120258A110B3099
:1008500083120313BB000E30BA00BA0B2D2CBB0B56
:100860002D2C0000BC2B253083120313AE00AE0BE1
:10087000372C3A2C02308A118E258A110B308312C4
:100880000313AE00AE0B422C452C28308A118E2566
:100890008A110B3083120313AE00AE0B4D2C502C7B
:1008A00010308A118E258A110B3083120313AE008B
:1008B000AE0B582C5B2C0C308A118E258A110B3014
:1008C00083120313AE00AE0B632C662C06308A1124
:1008D0008E258A110B3083120313AE00AE0B6E2CE3
:1008E000712C01308A118E258A110B30831203136B
:1008F000AE00AE0B792C7C2C80308A118E258A11AB
:100900000B3083120313AE00AE0B842C872C08002F
:1009100083120313B301B01F942CAF09B009AF0ABF
:100920000319B00AB301B30AAE1F9B2CAD09AE097F
:10093000AD0A0319AE0A2D082E040319C82CB20102
:10094000B20AAE1BAF2C01300310AD0DAE0DFF3E51
:10095000031DA42C0130B1003108B207A12C2E08D0
:100960003002031DB52C2D082F02031CBD2C2D08B1
:10097000AF022E08031CB003B00201300310AE0C0E
:10098000AD0CFF3E031DBE2C0130B202031DAF2C87
:1009900033080319D02CAF09B009AF0A0319B00A04
:1009A0003008AE002F08AD000800F901F61FDF2C5B
:1009B000F509F609F50A0319F60AF901F90AF41F0F
:1009C000E62CF309F409F30A0319F40A7308740412
:1009D0000319132DF801F80AF41BFA2C0130031047
:1009E000F30DF40DFF3E031DEF2C0130F7007708E7
:1009F000F807EC2C74087602031D002D73087502AD
:100A0000031C082D7308F5027408031CF603F60294
:100A100001300310F40CF30CFF3E031D092D0130CF
:100A2000F802031DFA2C790803191B2DF509F609A4
:100A3000F50A0319F60A7608F4007508F3000800B1
:100A4000831203132E08B4002F08B5003108B30039
:100A500005300310B30DFF3E031D292D0310330D88
:100A6000320480388A118E258A11831203133508C7
:100A7000FF00340884008A1100218A11003A03190A
:100A800008003008031908003508FF003408840006
:100A90008A1100218A118A11F1268A1101308312EC
:100AA0000313B4070318B50A0030B5070130B002CC
:100AB000352D7408FA007508FB007708F900053039
:100AC0000310F90DFF3E031D602D0310790D78040E
:100AD00080388A1120268A117B0883120313FF00B5
:100AE0007A0884008A1100218A11003A031908004B
:100AF0007608031908007B08FF007A0884008A1131
:100B000000218A118A1113278A110130FA0703186C
:100B1000FB0A0030FB070130F6026C2D8312031331
:100B2000AD0086100B3083120313AB00AB0B962D78
:100B3000992D831203132D08AB0004300310AB0C66
:100B4000FF3E031D9E2D0F302B05AC000508F0392C
:100B50002C0485008A1188278A110F308312031311
:100B60002D05AB000508F0392B0485008A11882774
:100B70008A110B3083120313AB00AB0BBD2DC02DBC
:100B8000080083120313AF002F08AE0005300310D6
:100B9000AE0DFF3E031DC72D03102E0D80388A11A8
:100BA0008E258A1183120313B001B10120308A11FE
:100BB000F1268A11013083120313B0070318B10A1A
:100BC0000030B1073108803AFF0080307F02031DFA
:100BD000EB2D28303002031CD62D80308A118E2553
:100BE0000800831203134708F0007008F200F101B7
:100BF0004608031D072E851FFB2DC601C60A0108E6
:100C0000F0007008C70081018B1647080800B43057
:100C1000F0007008F20572080319172E72080139E6
:100C2000F0007008F1060310F20C7F30082E03105C
:100C300083120313C70D7108F0007008C704052E56
:100C4000F3008312031386100C30F100F10B262EF3
:100C500000007308F10004300310F10CFF3E031D87
:100C60002C2E0F307105F200831203130508F039A2
:100C7000720485008A11A2278A110F307305F100D2
:100C8000831203130508F039710485008A11A22725
:100C90008A110C30F100F10B4B2E0000080083127A
:100CA00003134708AA002A08AC00AB014608031D3D
:100CB000652E851F592EC601C60A0108AA002A08FA
:100CC000C70081018B1647080800B430AA002A0823
:100CD000AC052C080319752E2C080139AA002A0826
:100CE000AB060310AC0C7F30662E0310C70D2B082B
:100CF000AA002A08C704632EF5007508F400053021
:100D00000310F40DFF3E031D802E0310740D803878
:100D10008A1120268A11F601F7017708803AFF0030
:100D200080307F02031D962E283076020318A32EF2
:100D300020308A1113278A110130F6070318F70AA9
:100D40000030F7078D2E80308A112026080083128C
:100D50000313A001A1017A1CB52E7C088312031392
:100D6000A0070318A10A7D08A10701300310FC0D9C
:100D7000FD0DFF3E031DB62E01300310FB0CFA0CD7
:100D8000FF3E031DBD2E7A087B04031DAB2E83128C
:100D900003132108FB002008FA0008008312031344
:100DA000B801B901341CDA2E3608B8070318B90A9D
:100DB0003708B90701300310B60DB70DFF3E031D0C
:100DC000DB2E01300310B50CB40CFF3E031DE22EE8
:100DD00034083504031DD22E3908B5003808B40094
:100DE000080083120313AD0086142D08AB000430F5
:100DF0000310AB0CFF3E031DF82E0F302B05AC008B
:100E00000508F0392C0485008A1188278A110F30D3
:100E1000831203132D05AB000508F0392B04850060
:100E20008A1188270800F3008312031386147308BD
:100E3000F10004300310F10CFF3E031D1A2F0F3098
:100E40007105F2000508F039720485008A11A227A5
:100E50008A110F307305F100831203130508F0396E
:100E6000710485008A11A227080083120313AD01C3
:100E7000AE01AF012D082A0784002E0803182E0AA0
:100E80002B07FF008A1100218A11003A0319532F02
:100E90000130AD070318AE0A0030AE070130AC00D8
:100EA0002C08AF073A2F2F080800F301F401F501D1
:100EB00073087007840074080318740A710783129A
:100EC0000313FF008A1100218A11003A0319732FBE
:100ED0000130F3070318F40A0030F4070130F20080
:100EE0007208F507582F7508080083120313AD0028
:100EF000AC012D1C7F2F2A08AB002B08AC07031078
:100F0000AA0D0310AD0C2D08031D792F2C08080025
:100F10008312031306150B3083120313AA00AA0BC6
:100F20008F2F922F831203130611080001308A11AC
:100F30008E258A110B3083120313AE00AE0B9E2F49
:100F4000A12F08008312031306150C30F000F00BDC
:100F5000A72F0000831203130611080001308A1125
:100F600020268A110C30F400F40BB42F0000080086
:100F700064008001840A0406031900340406B92FB2
:04400E0038FFFFFF79
:00000001FF
