:020000040000FA
:040000008A11112828
:10000800FE00030E83120313A2000408A3000A08CB
:10001800A4007F08A5008A11192C8A1113288A11B7
:10002800D9268A11C5008A11DA26C600BA01BB0191
:10003800BC01BD01BE01BF01C001C101C201C301B4
:0C004800C401FC01FD0183018A11762A2D
:10020000FF1B0A2983137F1883170008840A031928
:10021000FF0A08007F087F398A000408840A03194E
:10022000FF0A8200563461346334753475346D349A
:10023000003400340034003400340034003400341E
:10024000003400340034003400340034003400340E
:1002500000340034003400340034003400340034FE
:1002600043346C34653461346E3420346234613428
:100270007434683472346F346F346D340034003445
:1002800000340034003400340034003400340034CE
:100290000034003400340034003400344D346F3402
:1002A0007034203466346C346F346F3472340034FC
:1002B000003400340034003400340034003400349E
:1002C000003400340034003400340034003400348E
:1002D00000340034003400345734613473346834EB
:1002E00020346234653464342034733468346534C3
:1002F0006534743473340034003400340034003412
:10030000003400340034003400340034003400344D
:100310000034003457346134733468342034633427
:10032000753472347434613469346E347334003427
:10033000003400340034003400340034003400341D
:10034000003400340034003400340034003400340D
:10035000443475347334743469346E34673400341F
:1003600000340034003400340034003400340034ED
:1003700000340034003400340034003400340034DD
:1003800000340034003400340034003443346C341E
:10039000653461346E3420346D34693463347234BE
:1003A0006F3477346134763465340034003400348B
:1003B000003400340034003400340034003400349D
:1003C00000340034003400345334633472347534F0
:1003D0006234203464346F346F34723473342034B4
:1003E00061346E346434203463346134623469348B
:1003F0006E346534743473340034003400340034A3
:10040000003400344F347234673461346E346934EC
:100410007A346534203463346C346F347334653427
:1004200074340034003400340034003400340034B8
:10043000003400340034003400340034003400341C
:1004400043346C34653461346E34203475346E3426
:100450006434653472342034733469346E346B34EC
:100460007334003400340034003400340034003479
:1004700000340034003400340034003443346C342D
:10048000653461346E3420346634723469346434D3
:1004900067346534003400340034003400340034F0
:1004A00000340034003400340034003400340034AC
:1004B000003400340034003457346134733465340C
:1004C00065346D3400344834693462346134003446
:1004D0000034003473346C34653465347034203443
:1004E000743469346D34653421340034C03083167B
:1004F00003138500013086008312031385018601F2
:100500008B100B16831603138112811101158114B0
:1005100001148B128B178A11C4238A110A3083129B
:100520000313A9000030AA008A11B7258A1183128B
:100530000313B600B7013608AB003708AC008A11C8
:100540006A248A11831203132A08BF002908BE00F7
:100550003F08AC003E08AB000B30A9000030AA00F9
:100560008A116A248A11831203132A08B100290808
:10057000B0001E30B2000030B3008A110F268A117D
:10058000123083120313B6008130B70030083607EB
:10059000B80031080318310A3707B9003808BC0021
:1005A0003908BD008A11B7268A11831203133C084B
:1005B000A6003D08A7008A1176268A11831203132C
:1005C000B60011303602031C042B1030C500003079
:1005D000C600F42A450846040319022BFF30C5075C
:1005E0000318C60AFF30C60745083C0784004608C2
:1005F0000318460A3D07FF008A1100218A11203A9C
:10060000031DEA2AC201C20A3C08AA003D08AB0049
:100610004508B6003608AC00AD01AE018A11B7241A
:100620008A11073083120313B6003608A600430868
:100630008A1196268A115C3E83120313B70082301A
:100640000318013EB8003708AA003808AB0006308E
:10065000B9003908AC00AD01AD0AAE018A11B7246A
:100660008A11831203133C08A6003D08A7008A11D3
:1006700076268A1183120313B60011303602031C4A
:100680006B2B043083120313B7000230B600B60B95
:10069000472BB70B472B4C2B00308A1158258A115A
:1006A0008312031345083C07B60046080318460AA0
:1006B0003D07B7003608013EAA0037080318013E7F
:1006C000003EAB001030B8003808AC00AD01AE0100
:1006D0008A11B7248A118312031344080319B82B13
:1006E0000A30A9000030AA008A11B7258A118312A6
:1006F0000313B600B7013608AB003708AC008A1107
:100700006A248A11831203132A08BF002908BE0035
:100710003F08AC003E08AB000B30A9000030AA0037
:100720008A116A248A11831203132A08B100290846
:10073000B0001E30B2000030B3008A110F268A11BB
:10074000123083120313B6008130B7003008360729
:10075000B80031080318310A3707B9003808BC005F
:100760003908BD003E080139B6003608C300C4018F
:100770000B3083120313B7000E30B600B60BBE2B3E
:10078000B70BBE2B0000D22A253083120313AA0018
:10079000AA0BC82BCB2B02308A1125258A110B30CE
:1007A00083120313AA00AA0BD32BD62B28308A114D
:1007B00025258A110B3083120313AA00AA0BDE2B06
:1007C000E12B10308A1125258A110B308312031377
:1007D000AA00AA0BE92BEC2B0C308A1125258A11D3
:1007E0000B3083120313AA00AA0BF42BF72B06304D
:1007F0008A1125258A110B3083120313AA00AA0B34
:10080000FF2B022C01308A1125258A110B3083120F
:100810000313AA00AA0B0A2C0D2C80308A1125255F
:100820008A110B3083120313AA00AA0B152C182C63
:1008300008008B1C362C7D0803192D2C0C308A11D6
:1008400088258A118A11CF268A11803083120313DA
:10085000A000A00B292CFD012F2CC401C40A831277
:10086000031381018E018F018B105D2C0B1D5D2CFC
:10087000FD01FD0A00308A11E4258A116A30F40076
:100880008230F500103083120313A0002008F60018
:10089000F701F8018A11F0248A110630831203133C
:1008A000A1000630A000A00B532CA10B532C083044
:1008B0008A1188258A110B116300831203132508FE
:1008C000FF0024088A0023088400220E8300FE0E05
:1008D0007E0E090083120313AF01AC1F762CAB0907
:1008E000AC09AB0A0319AC0AAF01AF0AAA1F7D2CF1
:1008F000A909AA09A90A0319AA0A29082A04031995
:10090000AA2CAE01AE0AAA1B912C01300310A90D2E
:10091000AA0DFF3E031D862C0130AD002D08AE0749
:10092000832C2A082C02031D972C29082B02031C58
:100930009F2C2908AB022A08031CAC03AC0201302F
:100940000310AA0CA90CFF3E031DA02C0130AE021F
:10095000031D912C2F080319B22CAB09AC09AB0A6B
:100960000319AC0A2C08AA002B08A900080083125E
:1009700003132A08B0002B08B1002D08AF00053082
:100980000310AF0DFF3E031DC02C03102F0D2E04CE
:1009900080388A1125258A11831203133108FF003C
:1009A000300884008A1100218A11003A03190800D6
:1009B0002C08031908003108FF00300884008A1150
:1009C00000218A118A1132268A1101308312031301
:1009D000B0070318B10A0030B1070130AC02CC2CCB
:1009E0007408FA007508FB007708F9000530031059
:1009F000F90DFF3E031DF72C0310790D78048038A4
:100A00008A1188258A117B0883120313FF007A0854
:100A100084008A1100218A11003A0319080076081F
:100A2000031908007B08FF007A0884008A1100215E
:100A30008A118A1154268A110130FA070318FB0A19
:100A40000030FB070130F602032D83120313A900C7
:100A500086100B3083120313A700A70B2D2D302D0A
:100A6000831203132908A70004300310A70CFF3ECC
:100A7000031D352D0F302705A8000508F03928047F
:100A800085008A11A9268A110F30831203132905C4
:100A9000A7000508F039270485008A11A9268A11C4
:100AA0000B3083120313A700A70B542D572D0800FA
:100AB00083120313AB002B08AA0005300310AA0D04
:100AC000FF3E031D5E2D03102A0D80388A11252557
:100AD0008A1183120313AC01AD0120308A11322632
:100AE0008A11013083120313AC070318AD0A0030DA
:100AF000AD072D08803AFF0080307F02031D822D54
:100B000028302C02031C6D2D80308A112525080009
:100B1000F3008312031386100C30F100F10B8E2DBD
:100B200000007308F10004300310F10CFF3E031DB8
:100B3000942D0F307105F200831203130508F0396C
:100B4000720485008A11C3268A110F307305F100E3
:100B5000831203130508F039710485008A11C32636
:100B60008A110C30F100F10BB32D00000800831244
:100B700003134108A6002608A800A7014008031D8A
:100B8000CD2D851FC12DC001C00A0108A600260871
:100B9000C10081018B1641080800B430A600260868
:100BA000A80528080319DD2D28080139A600260804
:100BB000A7060310A80C7F30CE2D0310C10D270807
:100BC000A6002608C104CB2DF5007508F4000530F9
:100BD0000310F40DFF3E031DE82D0310740D803843
:100BE0008A1188258A11F601F7017708803AFF00FB
:100BF00080307F02031DFE2D2830760203180B2E55
:100C000020308A1154268A110130F6070318F70A9A
:100C10000030F707F52D80308A11882508008312EF
:100C20000313B401B501301C1B2E3208B40703189E
:100C3000B50A3308B50701300310B20DB30DFF3EFE
:100C4000031D1C2E01300310B10CB00CFF3E031D20
:100C5000232E30083104031D132E3508B10034084B
:100C6000B000080083120313A90086142908A70006
:100C700004300310A70CFF3E031D392E0F3027054B
:100C8000A8000508F039280485008A11A9268A11D0
:100C90000F30831203132905A7000508F039270434
:100CA00085008A11A9260800F30083120313861415
:100CB0007308F10004300310F10CFF3E031D5B2E9E
:100CC0000F307105F2000508F039720485008A11B1
:100CD000C3268A110F307305F10083120313050830
:100CE000F039710485008A11C326080083120313AA
:100CF000A901AA01AB012908260784002A080318C4
:100D00002A0A2707FF008A1100218A11003A0319D5
:100D1000942E0130A9070318AA0A0030AA0701304F
:100D2000A8002808AB077B2E2B08080083120313AA
:100D3000A900A801291CA02E2608A7002708A8079B
:100D40000310A60D0310A90C2908031D9A2E2808CC
:100D500008008312031306150B3083120313A60039
:100D6000A60BB02EB32E8312031306110800013018
:100D70008A1125258A110B3083120313AA00AA0BAE
:100D8000BF2EC22E08008312031306150C30F0008C
:100D9000F00BC82E00008312031306110800013067
:100DA0008A1188258A110C30F400F40BD52E00002E
:060DB000080010340034BD
:04400E0038FFFFFF79
:00000001FF
