:020000040000FA
:040000008A110B282E
:10000800FE00030EF5000A08F6008A11102D8A1169
:100018000D288A11E0258A11BE008A11E1258A116E
:10002800BF008A11E225C000B401B501B601B701CD
:10003800B801B901BA01BB01BC01BD01F701F80162
:10004800F90183018A112828C0308316031385001B
:1000580001308600831203138501860186158B10F3
:100068000B168316031381128111011581140114D3
:100078008B128B178A1176238A110A308312031385
:10008800A3000030A4008A11E3248A118312031309
:10009800B000B1013008A5003108A6008A11CB23B1
:1000A8008A11831203132408B7002308B6003708FF
:1000B800A6003608A5000B30A3000030A4008A1162
:1000C800CB238A11831203132408AB002308AA0048
:1000D8001E30AC000030AD008A1138258A1112306C
:1000E80083120313B0008230B1002A083007B2002F
:1000F8002B0803182B0A3107B3003208B400330861
:10010800B5003408A0003508A1008A117D258A11A0
:1001180083120313B00011303002031CB2281030D0
:10012800BE000030BF00A2283E083F040319B028D3
:10013800FF30BE070318BF0AFF30BF073E08340769
:1001480084003F0803183F0A3507FF008A11002280
:100158008A11203A031D9828BA01BA0A8312031398
:100168003C080319E1288A11BE258A116A308312D6
:100178000313A4008330A5001030B0003008A60097
:10018800A701A8018A1118248A11063083120313C3
:10019800B1000630B000B00BCF28B10BCF28083023
:1001A8008A1151248A1183120313BD018611630039
:1001B80083120313C001C00A61293D08031961298C
:1001C800C001C00A0A30A3000030A4008A11E32449
:1001D8008A1183120313B000B1013008A500310859
:1001E800A6008A11CB238A11831203132408B700AF
:1001F8002308B6003708A6003608A5000B30A30070
:100208000030A4008A11CB238A1183120313240817
:10021800AB002308AA001E30AC000030AD008A11E4
:1002280038258A11123083120313B0008230B100CE
:100238002A083007B2002B0803182B0A3107B3002D
:100248003208B4003308B50036080139B000300868
:10025800BB003408A0003508A1008A117D258A1149
:1002680083120313B00011303002031C5B291030D5
:10027800BE000030BF004A293E083F040319582930
:10028800FF30BE070318BF0AFF30BF073E08340718
:1002980084003F0803183F0A3507FF008A1100222F
:1002A8008A11203A031D4029BA01BA0A6029BA0105
:1002B8001030BE000030BF00BD0140080319972967
:1002C8008A11BE258A1183120313C0013408A400C1
:1002D8003508A5003E08B0003008A600A701A8010F
:1002E8008A1118248A11073083120313B0003008CA
:1002F800A0003B088A119D258A115C3E83120313D6
:10030800B10083300318013EB2003108A40032085E
:10031800A5000630B3003308A600A701A70AA80164
:100328008A1118248A11831203133A080319DC2945
:100338003408A4003508A5003E08B0003008A6001F
:10034800A701A8018A1118248A1106308312031301
:10035800B1000630B000B00BAF29B10BAF290030A7
:100368008A1184248A11831203133E083407B000CB
:100378003F0803183F0A3507B1003008013EA400C2
:1003880031080318013E003EA5001030B2003208C3
:10039800A600A701A8018A1118248A110630831221
:1003A8000313B1000630B000B00BD829B10BD8291F
:1003B8000B3083120313B1000E30B000B00BE229EA
:0803C800B10BE2290000B2288C
:10040000FF1B0A2A83137F1883170008840A031925
:10041000FF0A08007F087F398A000408840A03194C
:10042000FF0A8200563461346334753475346D3498
:10043000003400340034003400340034003400341C
:10044000003400340034003400340034003400340C
:1004500000340034003400340034003400340034FC
:1004600043346C34653461346E3420346234613426
:100470007434683472346F346F346D340034003443
:1004800000340034003400340034003400340034CC
:100490000034003400340034003400344D346F3400
:1004A0007034203466346C346F346F3472340034FA
:1004B000003400340034003400340034003400349C
:1004C000003400340034003400340034003400348C
:1004D00000340034003400345734613473346834E9
:1004E00020346234653464342034733468346534C1
:1004F0006534743473340034003400340034003410
:10050000003400340034003400340034003400344B
:100510000034003457346134733468342034633425
:10052000753472347434613469346E347334003425
:10053000003400340034003400340034003400341B
:10054000003400340034003400340034003400340B
:10055000443475347334743469346E34673400341D
:1005600000340034003400340034003400340034EB
:1005700000340034003400340034003400340034DB
:1005800000340034003400340034003443346C341C
:10059000653461346E3420346D34693463347234BC
:1005A0006F34773461347634653400340034003489
:1005B000003400340034003400340034003400349B
:1005C00000340034003400345334633472347534EE
:1005D0006234203464346F346F34723473342034B2
:1005E00061346E3464342034633461346234693489
:1005F0006E346534743473340034003400340034A1
:10060000003400344F347234673461346E346934EA
:100610007A346534203463346C346F347334653425
:1006200074340034003400340034003400340034B6
:10063000003400340034003400340034003400341A
:1006400043346C34653461346E34203475346E3424
:100650006434653472342034733469346E346B34EA
:100660007334003400340034003400340034003477
:1006700000340034003400340034003443346C342B
:10068000653461346E3420346634723469346434D1
:1006900067346534003400340034003400340034EE
:1006A00000340034003400340034003400340034AA
:1006B000003400340034003457346134733465340A
:1006C00065346D3400344834693462346134003444
:1006D0000034003473346C34653465347034203441
:1006E000743469346D346534213400342530831218
:1006F0000313A400A40B7A2B7D2B02308A11512402
:100700008A110B3083120313A400A40B852B882BB2
:1007100028308A1151248A110B3083120313A4004C
:10072000A40B902B932B10308A1151248A110B307B
:1007300083120313A400A40B9B2B9E2B0C308A1155
:1007400051248A110B3083120313A400A40BA62B8F
:10075000A92B06308A1151248A110B3083120313FE
:10076000A400A40BB12BB42B01308A1151248A119F
:100770000B3083120313A400A40BBC2BBF2B8030BF
:100780008A1151248A110B3083120313A400A40B85
:10079000C72BCA2B080083120313A901A61FD72B4E
:1007A000A509A609A50A0319A60AA901A90AA41F51
:1007B000DE2BA309A409A30A0319A40A230824040D
:1007C00003190B2CA801A80AA41BF22B013003105B
:1007D000A30DA40DFF3E031DE72B0130A700270842
:1007E000A807E42B24082602031DF82B2308250262
:1007F000031C002C2308A5022408031CA603A60240
:1008000001300310A40CA30CFF3E031D012C01308A
:10081000A802031DF22B29080319132CA509A60908
:10082000A50A0319A60A2608A4002508A3000800A3
:10083000831203132408AA002508AB002708A90087
:1008400005300310A90DFF3E031D212C0310290DB7
:10085000280480388A1151248A11831203132B082B
:10086000FF002A0884008A1100228A11003A031925
:1008700008002608031908002B08FF002A08840036
:100880008A1100228A118A115B258A110130831294
:100890000313AA070318AB0A0030AB070130A60206
:1008A0002D2C83120313A30086100B308312031325
:1008B000A100A10B592C5C2C831203132308A10067
:1008C00004300310A10CFF3E031D612C0F302105E5
:1008D000A2000508F039220485008A11B0258A118A
:1008E0000F30831203132305A1000508F0392104FA
:1008F00085008A11B0258A110B3083120313A100E1
:10090000A10B802C832C080083120313A50025085B
:10091000A40005300310A40DFF3E031D8A2C031014
:10092000240D80388A1151248A1183120313A601E1
:10093000A70120308A115B258A110130831203132D
:10094000A6070318A70A0030A7072708803AFF0068
:1009500080307F02031DAE2C28302602031C992C08
:1009600080308A1151240800F3008312031386108B
:100970000C30F100F10BBA2C00007308F1000430C8
:100980000310F10CFF3E031DC02C0F307105F20067
:10099000831203130508F039720485008A11CA25F1
:1009A0008A110F307305F100831203130508F03923
:1009B000710485008A11CA258A110C30F100F10BEF
:1009C000DF2C00000800831203133908A000200860
:1009D000A200A1013808031DF92C851FED2CB801D8
:1009E000B80A0108A0002008B90081018B16390857
:1009F0000800B430A0002008A20522080319092D20
:100A000022080139A0002008A1060310A20C7F30A3
:100A1000FA2C0310B90D2108A0002008B904F72C06
:100A20008B1C2A2D831203133C080319232D8615D2
:100A30000C308A11B4248A118A11D6258A118312A6
:100A40000313BC01252DBD01BD0A81018E018F015B
:100A50008B10312D0B1D312D83120313BC01BC0AE9
:100A60000B1176088A00750E8300FE0E7E0E0900BB
:100A700083120313AE01AF012A1C442D2C08AE07CC
:100A80000318AF0A2D08AF0701300310AC0DAD0DF0
:100A9000FF3E031D452D01300310AB0CAA0CFF3E99
:100AA000031D4C2D2A082B04031D3C2D2F08AB00E1
:100AB0002E08AA00080083120313A300861423083B
:100AC000A10004300310A10CFF3E031D622D0F3066
:100AD0002105A2000508F039220485008A11B025FD
:100AE0008A110F30831203132305A1000508F03982
:100AF000210485008A11B025080083120313A30185
:100B0000A401A50123082007840024080318240A4F
:100B10002107FF008A1100228A11003A03199B2D38
:100B20000130A3070318A40A0030A4070130A20073
:100B30002208A507822D2508080083120313A300AD
:100B4000A201231CA72D2008A1002108A207031041
:100B5000A00D0310A30C2308031DA12D22080800DB
:100B60008312031306150B3083120313A000A00B8E
:100B7000B72DBA2D831203130611080001308A1114
:100B800051248A110B3083120313A400A40BC62D29
:100B9000C92D08008312031306150C30F000F00B6A
:100BA000CF2D0000831203130611080001308A11B3
:100BB000B4248A110C30F400F40BDC2D0000080082
:060BC00010340034013482
:04400E0038FFFFFF79
:00000001FF
