:020000040000FA
:040000008A110B282E
:10000800FE00030EFC000A08FD008A11D02C8A119C
:100018000D288A110A258A11BC008A110B25BD00FA
:10002800B601B701B801B901BA01BB0183018A1150
:020038006D2A2F
:10020000FF1B0A2983137F1883170008840A031928
:10021000FF0A08007F087F398A000408840A03194E
:10022000FF0A8200573461347334653465346D34A9
:1002300048346934623461340034003456346134F3
:100240006334753475346D34003400340034003454
:1002500000340034003400340034003400340034FE
:1002600000340034003400340034003400340034EE
:10027000003400340034003443346C346534613469
:100280006E342034623461347434683472346F34C0
:100290006F346D34003400340034003400340034E2
:1002A00000340034003400340034003400340034AE
:1002B000003400344D346F347034203466346C3480
:1002C0006F346F347234003400340034003400343E
:1002D000003400340034003400340034003400347E
:1002E000003400340034003400340034003400346E
:1002F0005734613473346834203462346534643480
:1003000020347334683465346534743473340034A1
:10031000003400340034003400340034003400343D
:100320000034003400340034003400345734613475
:100330007334683420346334753472347434613403
:1003400069346E34733400340034003400340034C3
:1003500000340034003400340034003400340034FD
:10036000003400340034003444347534733474344D
:1003700000340034003400340034003400340034DD
:1003800000340034003400340034003400340034CD
:1003900000340034003400340034003400340034BD
:1003A0000034003443346C34653461346E342034AA
:1003B0006D346934633472346F3477346134763435
:1003C0006534003400340034003400340034003428
:1003D000003400340034003400340034003400347D
:1003E00053346334723475346234203464346F347B
:1003F0006F3472347334203461346E346434203496
:1004000063346134623469346E3465347434733403
:100410000034003400340034003400344F3472347B
:10042000673461346E3469347A346534203463342B
:100430006C346F34733465347434003400340034F5
:10044000003400340034003400340034003400340C
:10045000003400340034003443346C346534613487
:100460006E34203475346E34643465347234203420
:10047000733469346E346B347334003400340034B4
:1004800000340034003400340034003400340034CC
:100490000034003443346C34653461346E342034B9
:1004A000663472346934643467346534003400343B
:1004B000003400340034003400340034003400349C
:1004C000003400340034003400340034003400348C
:1004D0005434653473347434003483120313340396
:1004E00035040319732A8B170B168B10831603130D
:1004F00081128B1280308500013086008312031335
:10050000850186018A11E3228A110A3083120313BE
:10051000A3000030A4008A1133248A11831203132C
:10052000B000B1013008A5003108A6008A113823B7
:100530008A11831203132408B9002308B800831218
:1005400003133908A6003808A5000B30A3000030BB
:10055000A4008A1138238A11831203132408AB00E4
:100560002308AA001E30AC000030AD008A118B2495
:100570008A111E3083120313B0008130B1002A08A3
:100580003007B2002B0803182B0A3107B3003208DA
:10059000B6003308B7003608A4003708A500A60146
:1005A000A60A8A11D0238A110B3083120313B100DB
:1005B0000E30B000B00BDA2AB10BDA2A00008A1133
:1005C000FE248A119F2A253083120313A400A40B52
:1005D000E72AEA2A02308A1161248A110B30831239
:1005E0000313A400A40BF22AF52A28308A116124EF
:1005F0008A110B3083120313A400A40BFD2A002BD5
:1006000010308A1161248A110B3083120313A40065
:10061000A40B082B0B2B0C308A1161248A110B3090
:1006200083120313A400A40B132B162B06308A117C
:1006300061248A110B3083120313A400A40B1E2B18
:10064000212B01308A1161248A110B30831203138C
:10065000A400A40B292B2C2B80308A1161248A1131
:100660000B3083120313A400A40B342B372B080088
:1006700083120313A901A61F442BA509A609A50AE5
:100680000319A60AA901A90AA41F4B2BA309A409AF
:10069000A30A0319A40A230824040319782BA80128
:1006A000A80AA41B5F2B01300310A30DA40DFF3E6D
:1006B000031D542B0130A7002708A807512B24083D
:1006C0002602031D652B23082502031C6D2B23081E
:1006D000A5022408031CA603A60201300310A40CE3
:1006E000A30CFF3E031D6E2B0130A802031D5F2BE0
:1006F00029080319802BA509A609A50A0319A60A2A
:100700002608A4002508A3000800F901F61F8F2B76
:10071000F509F609F50A0319F60AF901F90AF41FB1
:10072000962BF309F409F30A0319F40A7308740405
:100730000319C32BF801F80AF41BAA2B013003108C
:10074000F30DF40DFF3E031D9F2B0130F7007708DA
:10075000F8079C2B74087602031DB02B73087502F2
:10076000031CB82B7308F5027408031CF603F60289
:1007700001300310F40CF30CFF3E031DB92B0130C4
:10078000F802031DAA2B79080319CB2BF509F609EA
:10079000F50A0319F60A7608F4007508F300080054
:1007A000831203132408A8002508A900260802398B
:1007B000A70005300310A70DFF3E031DDA2B031021
:1007C000270D8A1161248A11831203132908FF005F
:1007D000280884008A1100218A11003A03190800B0
:1007E0002908FF00280884008A1100218A118A1133
:1007F000AE248A11013083120313A8070318A90A33
:100800000030A907E42B831203133B08F0007008A3
:10081000F200F1013A08031D192C851F0D2CBA01B5
:10082000BA0A831603138116831203130108BB004F
:100830000800B430F0007008F20572080319292C82
:1008400072080139F0007008F1060310F20C7F30D5
:100850001A2C031083120313BB0D7108F0007008EB
:10086000BB043B080800831203133B08A0002008C8
:10087000A200A1013A08031D492C851F3D2CBA0195
:10088000BA0A831603138116831203130108BB00EF
:100890000800B430A0002008A20522080319592C32
:1008A00022080139A0002008A1060310A20C7F3005
:1008B0004A2C0310BB0D2108A0002008BB043B08F4
:1008C000080083120313A30086102308A10004303C
:1008D0000310A10CFF3E031D682C0F302105A20060
:1008E0000508F039220485008A11F0248A110F309E
:1008F000831203132305A1000508F03921048500A4
:100900008A11F0248A110B3083120313A100A10B6A
:10091000872C8A2C080083120313AE01AF012A1C16
:10092000972C2C08AE070318AF0A2D08AF0701302B
:100930000310AC0DAD0DFF3E031D982C01300310CC
:10094000AB0CAA0CFF3E031D9F2C2A082B04031D91
:100950008F2C2F08AB002E08AA0008008312031367
:10096000A30086142308A10004300310A10CFF3E4D
:10097000031DB52C0F302105A2000508F039220413
:1009800085008A11F0248A110F3083120313230586
:10099000A1000508F039210485008A11F02408001F
:1009A0008B1CE92C0A30F3000030F4008A11032478
:1009B0008A11FA00FB017A08F5007B08F6008A111B
:1009C00085238A11740883120313B9007308B800D1
:1009D0008B107D088A007C0E8300FE0E7E0E0900BF
:1009E0008312031306150B3083120313A000A00B10
:1009F000F72CFA2C831203130611080001308A1118
:100A000061248A110B3083120313A400A40B062D5A
:080A1000092D0800683482344E
:04400E0038FFFFFF79
:00000001FF
